:020000040800F2
:100000000050002021020008290200082D020008EB
:10001000A1020008A5020008ED020008000000008F
:100020000000000000000000000000003503000890
:1000300039030008000000003D03000841030008E8
:100040005103000851030008510300085103000840
:100050005103000851030008510300085103000830
:100060005103000851030008510300084D0E000819
:100070007D0E0008AD0E0008DD0E00080D0F000813
:100080003D0F00086D0F00085103000851030008E0
:1000900051030008510300085103000851030008F0
:1000A00051030008510300085103000851030008E0
:1000B00051030008510300085103000851030008D0
:1000C00051030008510300085103000851030008C0
:1000D0005103000859130008510300085103000898
:1000E00051030008510300085103000800000000FC
:1000F0000000000000000000000000000000000000
:1001000000000000000000005FF808F100B583B0B7
:1001100000F0AEF9304B314A1360314A1360314B75
:10012000314A03E011681960043304322F498B42CD
:10013000F8D32A4B1A682E4B9A4204D1284B1A68DE
:100140002C4B9A4200D0FEE7234B2B4A13602B4ADC
:1001500013602B4B02E000221A600433294A9342B9
:10016000F9D3254B1B6813B9244B1B6803B1FEE779
:1001700000F08AF9694601A800F024F9224C234BCB
:100180001C1BA410002504E01F4B53F82530984792
:100190000135AC42F8DC1E4C1E4B1C1BA410002584
:1001A00004E01B4B53F8253098470135AC42F8DC8E
:1001B0000099019801F0C0FC0546174C174B1C1B19
:1001C000A41004E0013C144B53F824309847002C51
:1001D000F8DC284600F0D2F8BABADECA04000020E3
:1001E0009400002004000020A027000898000020B0
:1001F0007856341232547698980000202C0600204D
:1002000098000020300600207C0300087C030008D2
:100210007C0300087C0300087C0300087C030008C2
:1002200008B5FFF773FF00BF00BEFEE71EF0040F26
:100230000CBFEFF30880EFF309807146414A104785
:100240002DE9F04182B004468846134B5E6B9F6BEC
:100250009D6A1B6B13F0020F0DD00F4BDB6A002B56
:1002600009DA4BF6AB6100F08BF920B14FF0004298
:10027000094BDA620CE0094800F0ACF8CDF80080D8
:100280003B4632462946204600F002F900BEFEE712
:1002900002B0BDE8F08100BF00ED00E0B02600082C
:1002A00000BEFEE71EF0040F0CBFEFF30880EFF373
:1002B00009807146244A10472DE9F04182B0044676
:1002C0008846084B5E6B9F6B9D6A074800F082F87A
:1002D000CDF800803B4632462946204600F0D8F84B
:1002E00000BEFEE700ED00E0C02600081EF0040F8F
:1002F0000CBFEFF30880EFF309807146134A1047F3
:100300002DE9F04182B004468846084B5E6B9F6B36
:100310009D6A074800F05EF8CDF800803B46324603
:100320002946204600F0B4F800BEFEE700ED00E0EC
:10033000CC26000800BEFEE700BEFEE700BEFEE7DA
:100340007047000041020008B902000801030008DC
:0403500000BEFEE706
:10035400A02700080400002098000020A02700081F
:10036400000000000000000098000020300600207B
:08037400000000000000000081
:10037C00FEE700BF08B50D4B1B6813B90C4A0B4BBD
:10038C001A600A4B1A68C31C23F00303134409496F
:10039C008B4206D901F0AEFC0C2303604FF0FF300A
:1003AC0008BD02490B60104608BD00BF9C00002030
:1003BC0030060020004C002001230360014B0B6031
:1003CC00704700BF080000200FB400B583B004AB29
:1003DC0053F8042B01938021064801F0BDFC002842
:1003EC0003DD0146034800F039F803B05DF804EB77
:1003FC0004B07047A40000202DE9F04385B00446FA
:10040C000F46435613BB042528462146ABBE044673
:10041C001FE03546102E28BF1025002306E014F9E6
:10042C00011B04AA1A4402F8101C0133AB42F6D388
:10043C0004AA1344002203F8102CE9464FF00408D8
:10044C0040464946ABBE8046761B00E00E46002E69
:10045C00DFD1384605B0BDE8F08300BF08B5FFF723
:10046C00CBFF08BD08B500F0FBF8024B024A9A60BE
:10047C0008BD00BF00ED00E00000000808B500F06A
:10048C0017F908BDF8B504460D4617461E46264812
:10049C00FFF79AFF21682548FFF796FF616824480B
:1004AC00FFF792FFA1682348FFF78EFFE16822480F
:1004BC00FFF78AFF21692148FFF786FF6169204811
:1004CC00FFF782FFA1691F48FFF77EFFE1691E4815
:1004DC00FFF77AFF1D48FFF777FF29461C48FFF707
:1004EC0073FF1C4CE16A1C48FFF76EFF216B1B4825
:1004FC00FFF76AFFE16B1A48FFF766FF15F0800FF4
:10050C0003D039461748FFF75FFF15F4004F03D0AF
:10051C0031461548FFF758FF1448FFF755FF069969
:10052C001348FFF751FFF8BD94250008A4250008D7
:10053C00B4250008C4250008D4250008E4250008CB
:10054C00F4250008042600081426000824260008B8
:10055C003026000800ED00E0402600085026000878
:10056C0060260008702600088026000890260008E7
:10057C009826000883691A888A4207D10268033AD0
:10058C00012A05D80233836101207047002070478F
:10059C000020704782B00023019300932C4A13680B
:1005AC0043F4803313602A4B1B6803F4003300932D
:1005BC00019B01330193009B1BB9019BB3F5A06F09
:1005CC00F1D1234B1B6813F4003F02D0012300939D
:1005DC0001E000230093009B012B36D11D4B1A68C0
:1005EC0042F010021A601A6822F003021A601A68AC
:1005FC0042F002021A60A3F580535A685A605A6896
:10060C005A605A6842F480625A605A6822F47C122A
:10061C005A605A6842F4E8125A601A6842F08072C2
:10062C001A600B4B1B6813F0007FFAD0084B5A680A
:10063C0022F003025A605A6842F002025A60044BDC
:10064C005B6803F00C03082BF9D102B0704700BFB4
:10065C00001002400020024008B5FFF79BFF08BDC8
:10066C0008B5104B1A6842F001021A6059680E4A1C
:10067C000A405A601A6822F0847222F480321A609E
:10068C001A6822F480221A605A6822F4FE025A6018
:10069C004FF41F029A60FFF7DFFF4FF00062034B2D
:1006AC009A6008BD001002400000FFF800ED00E069
:1006BC001F4B5B6803F00C03042B06D0082B08D0EF
:1006CC003BBB1C4A1C4B1A6026E01A4A1A4B1A6098
:1006DC0022E0174A53685268C3F38343023312F47F
:1006EC00803F05D1154A02FB03F3134A136013E054
:1006FC000F4A526812F4003F05D0104A02FB03F374
:10070C000D4A136008E00B4A02FB03F30A4A13601C
:10071C0002E0084A084B1A60054B5B68C3F30313ED
:10072C00074AD35CDAB204490B68D3400B607047BC
:10073C000010024000127A002000002000093D0049
:10074C001000002008B52E4B1B782BB92D4B1B68C5
:10075C00002B53D0984708BD013BDBB2284A1370DD
:10076C0029490A780132D2B20A70102A02D100212A
:10077C00254A1170244A127842F0200223490A704B
:10078C0073B9012322E0224A12881A4421490968CC
:10079C000A4412F8011C1D4AD1540133DBB200E0AB
:1007AC000123072BEFD90821184800F0CFF9184A7C
:1007BC0013880733138008BD1A44164909680A4484
:1007CC0012F8011C114AD1540133DBB2104A1288C1
:1007DC0011490988891A8B42EEDD072304E0FF20BA
:1007EC000A4AD054013BDBB29942F8DB0821074896
:1007FC0000F0ACF9084B1A88054B1A8008BD00BFF5
:10080C002C0100203C010020240100204801002084
:10081C0024000020400100204401002038B53E4B4C
:10082C001978002938D13D4B1B7813F0F00F0AD002
:10083C00002321E03A4A1268591C3848415CD154D3
:10084C000133DBB200E00023344A127802F00F02CD
:10085C009342EFDB0022334B1A80334B1B68002B87
:10086C0058D0984738BD1A442D490968581C2B4C50
:10087C00205C88540133DBB22A4A12882B49098840
:10088C00891A8B42EFDB0022264B1A80264B1B6801
:10089C00002B3FD0984738BD204B1B7803F0F0035A
:1008AC00102B1BD10BE01F4A12881A441C480068FD
:1008BC009C1C1A4D2C5D84540133DBB200E00023E8
:1008CC00052BF0D9174A1388063313800139124BC4
:1008DC0019700821114800F04FF938BD202B19D19F
:1008EC000AE0104A12881A440D48006801330B4C78
:1008FC00E45C8454DBB200E00023062BF1D9094AF6
:10090C001388073313800139034B197008210348EE
:10091C0000F032F938BD00BF460100203001002044
:10092C005401002038010020280100205001002033
:10093C0030B583B00446ADF806102C4800F032F9FF
:10094C00BDF80650072D20D8EAB2294B1A700123A6
:10095C0006E0E11811F8010C2549C8540133DBB24B
:10096C0099B28D42F5D2531CDBB204E0FF21204A30
:10097C00D1540133DBB2072BF8D908211C4800F005
:10098C00E5F800221B4B1A702DE01B4B1C601B4B17
:10099C001D80174A9DF8063053709DF8073043F0C0
:1009AC0010031370002305E09A1CE05C1049885476
:1009BC000133DBB2052BF7D908210D4800F0C6F83E
:1009CC00BDF80620063A0E4B83FB02139918D31779
:1009DC00C3EBA103D9B2074C2170C3EBC3039A42FA
:1009EC0001D00131217003B030BD00BF51070008A8
:1009FC00480100202C01002040010020440100206F
:100A0C0093244992F8B507460C460023184A1370F4
:100A1C00184A1380184E3360184800F0CBF805467E
:100A2C003760072C09D80821154800F0A5F8284391
:100A3C00C0B200220E4B1A70F8BD0E4B1C80A11FC9
:100A4C00104B83FB01235A18CB17C3EBA203DAB26A
:100A5C0007480270C3EBC303994201D00132027004
:100A6C000821074800F088F82843C0B2F8BD00BF41
:100A7C0046010020500100205401002029080008E4
:100A8C00300100209324499218B1034A10600020D1
:100A9C0070470120704700BF3C01002018B1034A89
:100AAC001060002070470120704700BF2801002013
:100ABC0070B58AB000224FF44863CDE904230022BC
:100ACC002023CDE906231C4B08930AA84FF4C063DE
:100ADC0020F8203D00F076F80546184C21464F20B2
:100AEC0000F00CFB2843C5B22468154AA2FB04365F
:100AFC00360D4FF4E11303FB16442401A2FB04341E
:100B0C00240D01220F4B1A7000F016F90E4A53698E
:100B1C0043F0C0035361136943F4804343F0600313
:100B2C0013610022009213462146304600F0E4FB8C
:100B3C002843C0B20AB070BD00080140BC050020BB
:100B4C00C5B3A291580100200038014038B50446C5
:100B5C000D460648064B0360032100F059F90323A8
:100B6C002A460449204600F035F938BDC00500205E
:100B7C00391400080438014038B504460D460648BF
:100B8C00064B0360042100F043F904232A46044970
:100B9C00204600F01FF938BDCC0500206114000878
:100BAC000438014018B108B500F0C4FB08BD0120A1
:100BBC00704700BF18B108B500F0C2FB08BD01209A
:100BCC00704700BF2DE9F04F89B0D0E90289D0E918
:100BDC00042348EA020849EA0309018800230C4669
:100BEC00CDE900BC84469CE014F0010F00F08E802F
:100BFC0008F00F020C2A38D0082A36D0DCF818700E
:100C0C009E000F21A6F1200EC6F1200001FA0EF570
:100C1C0021FA00F005430395B1400291D7E9000198
:100C2C00DDE902AB20EA0A0A21EA0B0B50465946D1
:100C3C00C7E90001DCF81870D0B2C6F1200200251B
:100C4C0000FA0EF10D4320FA02F21543019500FA59
:100C5C0006F20092D7E90001DDE9005605430E4388
:100C6C0028463146C7E9000150E00C2A01D0082A79
:100C7C005CD1DCF818E09F000F21A7F1200AC7F126
:100C8C00200001FA0AF521FA00F005430595B94058
:100C9C000491DEE90001DDE904AB20EA0A0A21EA4D
:100CAC000B0B50465946CEE90001DCF818E0082140
:100CBC00A7F1200AC7F1200001FA0AF521FA00F089
:100CCC0005430795B9400691DEE90001DDE906AB65
:100CDC004AEA000A4BEA010B50465946CEE900019C
:100CEC00082A09D1DCF81810012202FA03F0CA68AC
:100CFC0022EA0002CA6009E00C2A19D1DCF81810AB
:100D0C00012202FA03F6CA683243CA604FEA18128B
:100D1C0042EA09724FEA1911904689466408013378
:100D2C00DBB20F2B7FF660AF002002E0012000E069
:100D3C00012009B0BDE8F08FF8B500252C4642E043
:100D4C0004EB44021301224A134493F82C20062A84
:100D5C0035D81F4F6600331919017B18785859681C
:100D6C00084399680843D9680843196908435969C5
:100D7C00084399690843D9690843196A0843596AB1
:100D8C000843996A084302EB8202910001F1804208
:100D9C0002F50032906093F82C000B30C0B200F0DA
:100DAC000BF92843C5B2264433011F4497F82C0095
:100DBC000B30C0B200F0EEF82843C5B201E045F0AC
:100DCC0001050134E4B2022CBAD92846F8BD00BFA3
:100DDC00DC260008F0B4074630B929B9062B03D934
:100DEC004FF6FE7082420DD8084C9D00EE18B000F4
:100DFC002044C26047610161816841F0010181605A
:100E0C00002000E00120F0BC704700BF0000024051
:100E1C0070B4024608B906290CD8166807484C006D
:100E2C006518AB00C518C65053686B609268AA6011
:100E3C00002000E0012070BC704700BFD8050020E6
:100E4C0008B5094B1B6813F0020F0CD0064B5A68FF
:100E5C0042F002025A609A6822F001029A60034B37
:100E6C001B6803B1984708BD00000240D80500205C
:100E7C0008B5094B1B6813F0200F0CD0064B5A68B1
:100E8C0042F020025A60DA6922F00102DA61034B67
:100E9C00DB6803B1984708BD00000240D80500206C
:100EAC0008B5094B1B6813F4007F0CD0064B5A682D
:100EBC0042F400725A601A6B22F001021A63034B5F
:100ECC009B6903B1984708BD00000240D80500207B
:100EDC0008B5094B1B6813F4005F0CD0064B5A681D
:100EEC0042F400525A605A6C22F001025A64034BCD
:100EFC005B6A03B1984708BD00000240D80500208A
:100F0C0008B5094B1B6813F4003F0CD0064B5A680C
:100F1C0042F400325A609A6D22F001029A65034B3A
:100F2C001B6B03B1984708BD00000240D805002098
:100F3C0008B5094B1B6813F4001F0CD0064B5A68FC
:100F4C0042F400125A60DA6E22F00102DA66034BA8
:100F5C00DB6B03B1984708BD00000240D8050020A8
:100F6C0008B50A4B1B6813F0007F0ED0074B5A686C
:100F7C0042F000725A60D3F8802022F00102C3F8CC
:100F8C008020034B9B6C03B1984708BD00000240C6
:100F9C00D8050020EF280BD8064B1A68410900F041
:100FAC001F00012303FA00F042F8210000207047D3
:100FBC000120704728000020EF280CD8074B196837
:100FCC00430900F01F00012202FA00F0603341F8DF
:100FDC002300002070470120704700BF280000202C
:100FEC00000240F00060014B1860704708ED00E013
:100FFC00014A024B1A6070470400FA050CED00E040
:10100C00184B1B6813F00C0203D1174B0360002024
:10101C007047042A03D1144B036000207047082A40
:10102C001BD113F4403302D1104B03600AE0B3F52B
:10103C00403F02D10D4B036004E0B3F5803F0ED16D
:10104C00094B0360074B1B68C3F3834302330268ED
:10105C0003FB02F30360002070470120704701205E
:10106C00704700BF0410024000127A0000093D00D6
:10107C0000280FDA39B1012932D11D4A13681843FF
:10108C001060002070471A4A136823EA00001060B1
:10109C0000207047830F012B0FD139B1012921D1C9
:1010AC00144A13681843106000207047114A1368E3
:1010BC0023EA0000106000207047430F012B13D16E
:1010CC0039B1012912D10C4A136818431060002061
:1010DC007047094A136823EA00001060002070472B
:1010EC000020704700207047012070470020704797
:1010FC00141002401C1002401810024030B583B08E
:10110C0004460D4602A8002340F8043DFFF778FF83
:10111C00002840F08180019A2A60474B1B6813F02D
:10112C00F00326D0802B02D152082A6021E0902BAC
:10113C0002D192082A601CE0A02B02D1D2082A60AE
:10114C0017E0B02B02D112092A6012E0C02B02D199
:10115C0092092A600DE0D02B02D1D2092A6008E056
:10116C00E02B02D1120A2A6003E0F02B56D1520A6E
:10117C002A604D2C02D100BF00205AE04E2C24D105
:10118C002D4B1B6813F4E0634AD0B3F5806F04D188
:10119C002B685B082B6000204BE0B3F5A06F04D1EB
:1011AC002B689B082B60002043E0B3F5C06F04D183
:1011BC002B68DB082B6000203BE0B3F5E06F31D1EE
:1011CC002B681B092B60002033E04F2C2CD11A4BC1
:1011DC001B6813F4605329D0B3F5005F04D12B685E
:1011EC005B082B60002024E0B3F5205F04D12B6852
:1011FC009B082B6000201CE0B3F5405F04D12B68EA
:10120C00DB082B60002014E0B3F5605F10D12B6875
:10121C001B092B6000200CE001200AE0012008E0F3
:10122C00002006E0012004E0012002E0002000E0A4
:10123C00012003B030BD00BF04100240024A136904
:10124C0043F080031361704700200240034B044AB3
:10125C005A6002F188325A60704700BF0020024089
:10126C00230167450C4BDB6813F0020FFAD10A4BD4
:10127C001A6942F002021A6158611A6942F040027E
:10128C001A61054BDB6813F0020FFAD1024A13699D
:10129C0023F002031361704700200240154BDB68FA
:1012AC0013F0020FFAD130B4124C236943F001034E
:1012BC002361002304E031F8134020F8134001337C
:1012CC005C00151B012DF6D8944203D00B5D43F442
:1012DC007F430353074BDB6813F0020FFAD1054B26
:1012EC00DA6842F02002DA601A6922F001021A610F
:1012FC0030BC70470020024010B541EA00110C4C84
:10130C00A1601343E1680B4343F4005343F00C0317
:10131C00E3602269029B134323612520FFF74CFEF7
:10132C0004462520FFF736FE2043C0B210BD00BF97
:10133C0000380140014B1860002070476401002008
:10134C00014B1860002070475C01002008B5304B41
:10135C001B78002B4DD12F4B1B6813F0400F1FD067
:10136C0023F040032B4A13602B4B1B7B012B17D113
:10137C00294B5A689B689A4208D0274B1968895C9C
:10138C00244A51605A6801325A6009E0224B00220B
:10139C005A609A601A601A73204B1B6803B1984705
:1013AC001C4B1B6813F0200F23D01D4A127B012A03
:1013BC001FD11B4A5168926891420BD0154923F0FA
:1013CC0020030B60164A106853684968C1540133F6
:1013DC0053600EE0124B00221A605A609A601A7326
:1013EC000C4AD36823F02003D3600E4B1B6803B167
:1013FC009847084B1B6813F4807F07D023F4807345
:10140C00044A1360084B1B6803B1984708BD00BF22
:10141C0058010020003801407801002064010020B0
:10142C00680100205C0100206001002008B5074B1A
:10143C001B6813F0400FFAD023F04003034A1360EB
:10144C00034B1B6803B1984708BD00BF003801402F
:10145C006401002008B5024B1B6803B1984708BD16
:10146C005C010020034B1978034A117002221A7098
:10147C00704700BF2F0000202C0000200422014BDD
:10148C001A7070472F000020064B1B78032B03D1DA
:10149C000122054B1A707047044B1A78024B1A70D4
:1014AC00704700BF980100202F0000202C00002066
:1014BC000A22014B1A7070472F0000200522014BA5
:1014CC001A7070472F0000200622014B1A707047CB
:1014DC002F000020002003460BE003F1080207490F
:1014EC00895C074A12689A5C914200D00120013352
:1014FC009BB2044A12889342EFD37047A401002098
:10150C00880100208C0100200722014B1A707047C3
:10151C002F0000200822014B1A7070472F0000206A
:10152C000622014B1A7070472F000020002304E0A4
:10153C000021054AD1540133DBB2012BF8D9032227
:10154C00024B1A70704700BFA40100202F0000202E
:10155C0010B5054C04E02046FFF784FE04F58064CA
:10156C00024B9C42F7D910BD002C000800FC00086F
:10157C0010B5ADF5806D002308E003F1006202F5B3
:10158C00205212780DF8032001339BB2B3F5806F13
:10159C00F3D3FFF75BFE094C2046FFF763FE4FF0D9
:1015AC00FF33FE93FF934FF4806269462046FFF7AA
:1015BC0075FEFFF743FE0DF5806D10BD0028000889
:1015CC0008B52A4B1B78013B092B4DD8DFE803F0FB
:1015DC00054C3D0D151D252D3545254A2549222047
:1015EC0000F0F0FAFFF73EFF08BD234A2149102016
:1015FC0000F0E8FAFFF736FF08BD204A1D4901202C
:10160C0000F0E0FAFFF72EFF08BD1D4A1949312002
:10161C0000F0D8FAFFF726FF08BD1A4A1549342006
:10162C0000F0D0FAFFF71EFF08BD174A114936200B
:10163C0000F0C8FAFFF716FF08BD144A0D49372011
:10164C0000F0C0FAFFF70EFF08BD114A09492E2021
:10165C0000F0B8FAFFF706FF08BD0E4A0549112045
:10166C0000F0B0FAFFF7FEFE08BD00BF2F0000200F
:10167C00E91A0008A40100206D1A0008C519000819
:10168C00D518000881180008F1170008C9170008C0
:10169C00511700081917000808B5002304E00021B1
:1016AC00094AD15401339BB2B3F5816FF7D3074B81
:1016BC001B681BB90922064B1A7008BD054A024962
:1016CC00362000F07FFA08BDA40100209C01002008
:1016DC002F000020F117000808B5034A0349022027
:1016EC0000F070FA08BD00BF091A0008A401002020
:1016FC0008B5044A137801331370034A00F0E6FA74
:10170C0008BD00BF980100209514000808B50A4BCD
:10171C00187811280CD15B78022B05D107494B7036
:10172C00074A00F08DFA08BD1221FFF7E1FF08BD52
:10173C002421FFF7DDFF08BDA4010020900100204B
:10174C00FD0F000810B5174B18782E2825D15B8893
:10175C004AF6BB22934204D04CF6DD4293420CD0A5
:10176C0017E0104C0422A1180F48FFF797FD0F4A01
:10177C000F49207800F064FA10BD0A4C0422A1181D
:10178C000C48FFF78BFD0C4A0949207800F058FAF9
:10179C0010BD1221FFF7ACFF10BD2421FFF7A8FFED
:1017AC0010BD00BFA4010020F82B0008891400080C
:1017BC0090010020FC2B00083915000808B5064BD9
:1017CC001878372804D1054A054900F039FA08BDC4
:1017DC002421FFF78DFF08BDA40100203915000856
:1017EC009001002008B51C4B187836282FD15A7858
:1017FC001A4B1B7801339A4225D117494868184B6C
:10180C0018604A88174B1A800831FFF747FD0023F0
:10181C00194605E0104A1A44127A114401339BB25E
:10182C00104A12889342F5D38BB20F495B424B801E
:10183C0000220E4B1A70084B5A784A700C4A1878D2
:10184C0000F0FEF908BD7221FFF752FF08BD2421FC
:10185C00FFF74EFF08BD00BFA4010020A00100202F
:10186C00880100208C0100209001002098010020AC
:10187C002D15000808B50F4B1878342815D15B7856
:10188C00042B0ED100220C4B1A700A4B5A880B4BAE
:10189C001A600B494FF480634B800A4A00F0D0F970
:1018AC0008BD1321FFF724FF08BD2421FFF720FFFB
:1018BC0008BD00BFA4010020980100209C0100205D
:1018CC00900100202115000810B5314B1C78312CEB
:1018DC0059D159782F4A51705B88538049F676025A
:1018EC00934221D04AF6CD32934247D101294ED1B1
:1018FC00294B1B78102B0FD1284B1B78022B0BD1AB
:10190C000022274B1A70FFF723FE264A2149204B51
:10191C00187800F095F910BDFFF71AFE33211C4B17
:10192C001878FFF7E5FE10BD012930D11A4B1B7852
:10193C00102B1ED1194B1B78022B1AD1FFF7CAFDA5
:10194C0078B9194A194B198813685B1A1360184A2D
:10195C00137801331370174A0E49204600F070F9C2
:10196C0010BDFFF7F5FD7221094B1878FFF7C0FE8B
:10197C0010BD33212046FFF7BBFE10BD12212046BF
:10198C00FFF7B6FE10BD24212046FFF7B1FE10BDB7
:10199C00A4010020900100202D0000202E0000202A
:1019AC0098010020151500089C0100208C010020D6
:1019BC00A0010020A516000808B50C4B18782728A4
:1019CC000FD15B78012B0CD10021094A1170094908
:1019DC004B7041F235224A80074A184600F030F924
:1019EC0008BD2421FFF784FE08BD00BFA401002020
:1019FC009801002090010020E516000808B5134B53
:101A0C001A8840F227239A4219D1104B5A884BF26C
:101A1C00F2239A420DD110220D4B1A7000220D4B5D
:101A2C001A700A4B58780C4948700C4A00F008F9A7
:101A3C0008BD3321054B1878FFF75AFE08BD242149
:101A4C00024B1878FFF754FE08BD00BFA40100201C
:101A5C002D0000209801002090010020D5140008D2
:101A6C0008B5184B1878102827D15B78164A1370D4
:101A7C00164A5370012B02D0022B0CD019E0002215
:101A8C00134B1A70FFF7DAFB124A10490D4B1878FA
:101A9C0000F0D6F808BD00220D4B1A70FFF7D6FBEC
:101AAC000A490D234B800C4A064B187800F0C8F8F5
:101ABC0008BD1221FFF71CFE08BD2421FFF718FEFC
:101ACC0008BD00BFA40100202E00002090010020C2
:101ADC0098010020BD140008C914000808B50E4B6D
:101AEC001878222813D15A884AF6BB239A420AD175
:101AFC0000220A4B1A700A4B1B680A494B600A4AAF
:101B0C0000F09EF808BD1221FFF7F2FD08BD24215C
:101B1C00FFF7EEFD08BD00BFA401002098010020D6
:101B2C00F82B0008900100208914000808B54FF02C
:101B3C0000531A681A4B9A4209D14FF0FF324FF0FA
:101B4C0000531A60FFF714FD0020FFF749FA154BFC
:101B5C001B68154A934203D0B3F1FF3F06D008BD72
:101B6C0017498D46114B1B68984708BD4FF0FF3243
:101B7C004FF000531A6001210D48FFF779FA01214B
:101B8C000C48FFF775FA01210B48FFF771FA012198
:101B9C000A48FFF76DFAFEF78BFFFFF711FDFCE724
:101BAC0054044025F82B0008DDCCBBAAFC2B000804
:101BBC0004000020100000200040002001000080E4
:101BCC000050002070B50E460138362827D8DFE8C3
:101BDC0000F01C29262626262626262626262626FC
:101BEC00261C1C262626262626262626262626269D
:101BFC002626262926262626262626262626261F7D
:101C0C0026262926262926221C00022500240BE044
:101C1C000825002408E04FF48165002404E0002529
:101C2C00012401E0042500241046FEF737FF204371
:101C3C00C4B229463046FEF7E5FE2043C0B270BD63
:101C4C0070B50D46411E36292BD8DFE801F01F2355
:101C5C002A2A2A2A2A2A2A2A2A2A2A2A2A1C2D2AE3
:101C6C002A2A2A2A2A2A2A2A2A2A2A2A2A2A2A27CB
:101C7C002A2A2A2A2A2A2A2A2A2A2A2D2A2A1C2AC3
:101C8C002A1C2A1C2D00042600240FE00426002404
:101C9C0027200BE002260024272007E0082600243A
:101CAC0004E00026012401E00226002400F1400398
:101CBC002B701046FEF7E8FE2043C4B2314628468E
:101CCC00FEF736FE2043C0B270BD00BF38B5084CDD
:101CDC007F2323706070A1701046FEF7D5FE054679
:101CEC0003212046FEF724FE2843C0B238BD00BFB6
:101CFC00AC050020014B1868704700BF9000002015
:101D0C0030B5141E05469BB0184604DA8B232B60A5
:101D1C004FF0FF301DE04FF40273ADF80C300CBFE8
:101D2C00234604F1FF33029305934FF6FF730091A2
:101D3C000491ADF80E3002461E9B6946284600F011
:101D4C0073F8431CBCBF8B232B6014B1009B002287
:101D5C001A701BB030BD000007B5009313460A463D
:101D6C00014603480068FFF7CBFF03B05DF804FBA6
:101D7C00900000202DE9F0478E6882469E420C466A
:101D8C00914698463ED88A8912F4906F3AD02568CD
:101D9C00096902236F1A656905EB450595FBF3F597
:101DAC007B1C43449D4238BF1D4653050FD5294625
:101DBC0000F04AFB064698B13A46216900F0D2FA87
:101DCC00A38923F4906343F08003A38113E02A4694
:101DDC0000F098FB064670B92169504600F0E8FA0D
:101DEC000C23CAF80030A3894FF0FF3043F04003B6
:101DFC00A381BDE8F08726613E44266046466561B6
:101E0C00ED1BA560464528BF46464946324620682C
:101E1C0000F0B3FAA36800209B1BA36023681E4448
:101E2C002660BDE8F08700002DE9F04F9DB00393CC
:101E3C008B8980461C060D4616460DD50B695BB981
:101E4C00402100F001FB2860286118B90C23C8F868
:101E5C000030CDE040236B610023099320238DF8E3
:101E6C002930DFF89CB130238DF82A3037463C46B8
:101E7C0014F8013B1BB9B7EB060910D003E0252B76
:101E8C00F9D02746F3E74B46324629464046FFF742
:101E9C0071FF013000F0A780099B4B4409933B78FC
:101EAC00002B00F0A08000234FF0FF320493079327
:101EBC00059206938DF853301A930126052221784A
:101ECC004E4800F041FA671C049B38B14B4A3C4623
:101EDC00801A06FA00F018430490EFE7D90644BFC5
:101EEC0020228DF853201A0744BF2B228DF8532043
:101EFC0022782A2A03D0079A00210A200BE0039AA1
:101F0C00111D12680391002A10DA524243F00200AC
:101F1C00079204900BE027463B780134303B092BA9
:101F2C0003D800FB02320121F5E701B107923B789F
:101F3C002E2B1ED17B782A2B0AD1039B02371A1D1C
:101F4C001B680392002BB8BF4FF0FF33059310E0D2
:101F5C00002319460593781C0A2407463A78013069
:101F6C00303A092A03D804FB01210123F5E703B118
:101F7C00059103223978224800F0E6F940B140235C
:101F8C00CBEB000003FA00F0049B013718430490DC
:101F9C00397806221B487E1C8DF8281000F0D4F9E5
:101FAC0088B1194B33B9039B073323F0070308336C
:101FBC00039314E003AB00932A46144B04A9404648
:101FCC00AFF3008007E003AB00932A460F4B04A944
:101FDC00404600F093F8B0F1FF3F824603D0099BD6
:101FEC005344099342E7AB895B0601D4099801E09D
:101FFC004FF0FF301DB0BDE8F08F00BF6C2700081C
:10200C00722700087627000800000000811D0008D8
:10201C002DE9F04791461F460A698B6806469342A4
:10202C00B8BF1346C9F8003091F843200C46DDF8D0
:10203C00208012B10133C9F800302368990642BFE1
:10204C00D9F800300233C9F80030256815F00605C0
:10205C0010D104F1190A07E00123524639463046E3
:10206C00C04701301AD00135E368D9F800209B1A1B
:10207C009D42F1DB94F843302268003318BF0123F2
:10208C0092060FD5E118302081F843005A1C94F8C1
:10209C0045102244023382F8431003E04FF0FF3026
:1020AC00BDE8F08704F1430239463046C0470130A1
:1020BC00F4D02268D9F80050E36802F00602042A32
:1020CC0008BF5D1B2269A3680CBF25EAE5750025D6
:1020DC009342C4BF9B1AED184FF000091A344D45BA
:1020EC0009D00123224639463046C0470130D5D0AD
:1020FC0009F10109F3E70020BDE8F0872DE9F04371
:10210C0017460A7E85B06E2A984606460C460C9BEE
:10211C0001F1430E00F0AE8011D8632A22D009D809
:10212C00002A00F0BB80582A40F0CA8081F8452074
:10213C00834955E0642A1ED0692A1CD0C0E0732A5A
:10214C0000F0B08009D86F2A2ED0702A40F0B880E9
:10215C000A6842F020020A603EE0752A24D0782AF0
:10216C003AD0ADE01A6801F14205111D19601368EF
:10217C0084F84230A8E021681A6811F0800F02D070
:10218C00111D196008E011F0400F02F104011960F3
:10219C0002D0B2F9003000E01368002B3CDA2D229B
:1021AC005B4284F8432037E021681A6811F0800FF5
:1021BC0002D0111D196007E011F0400F02F104016B
:1021CC00196001D0138800E01368227E5C496F2AE5
:1021DC0014BF0A2208221BE078225A4984F84520B1
:1021EC002268186812F0800F00F104051D6003D1FD
:1021FC00550601D5038800E00368D00744BF42F0C0
:10220C00200222601BB9226822F0200222601022D8
:10221C00002084F8430001E049490A226568002D3A
:10222C00A56008DB206820F0040020602BB9002D8D
:10223C007DD175460CE0002B79D07546B3FBF2F0DE
:10224C0002FB1033CB5C05F8013D03460028F5D1A9
:10225C00082A0BD12368DA0708D5236962689A42E9
:10226C00DEBF302305F8013C05F1FF35C5EB0E034D
:10227C0023612EE008681A6810F0800F496903D0BA
:10228C00101D1860136808E010F0400F02F10400F4
:10229C001860136801D0198000E0196000232361D5
:1022AC00754616E01A68111D1960156800216268E0
:1022BC00284600F049F808B1401B6060636804E0F0
:1022CC0004F1420584F8422001232361002384F8A1
:1022DC004330CDF800803B4603AA21463046FFF739
:1022EC0097FE013002D14FF0FF3026E023692A46D9
:1022FC0039463046C0470130F5D023689B0710D5CE
:10230C00002504F1190907E001234A4639463046F5
:10231C00C0470130E7D00135E368039A9B1A9D4210
:10232C00F2DBE068039B9842B8BF184605E00B78D7
:10233C0004F1420584F842308AE705B0BDE8F08329
:10234C007D2700088E27000810B5C9B202449042C0
:10235C00034605D01C7801308C42F8D1184610BDCC
:10236C00002010BD10B5431E0A44914204D011F850
:10237C00014B03F8014FF8E710BD884210B501EB93
:10238C00020301D8421E0BE09842FBD28118D21AEC
:10239C00D34204D013F8014D01F8014DF8E710BDFC
:1023AC00994204D011F8014B02F8014FF8E710BD27
:1023BC0038B50546002944D051F8043C0C1F002BBD
:1023CC00B8BFE41800F0D4F81E4A1368114613B9CC
:1023DC006360146030E0A3420DD92268A0188342D8
:1023EC0001BF18685B681218226063600C6023E000
:1023FC00A24203D813465A68002AF9D11868191852
:10240C00A1420BD12168014458188242196013D1A2
:10241C0010685268014419605A600DE002D90C230F
:10242C002B6009E021686018824201BF1068526875
:10243C000918216062605C602846BDE8384000F0F5
:10244C0098B838BDB405002070B5CD1C25F0030537
:10245C0008350C2D38BF0C25002D064601DBA94292
:10246C0002D90C23336046E000F082F8234B1C6841
:10247C001A462146A1B10B685B1B0ED40B2B03D95A
:10248C000B60CC18CD501EE08C420BBF63684B68C0
:10249C001360636018BF0C4615E00C464968E9E709
:1024AC00174C23681BB9304600F052F820602946BF
:1024BC00304600F04DF8431C18D0C41C24F0030423
:1024CC00A0420DD12560304600F053F804F10B000A
:1024DC00231D20F00700C31A0ED05A42E25070BDE3
:1024EC00211A304600F034F80130EBD10C23336064
:1024FC00304600F03EF8002070BD00BFB40500204F
:10250C00B0050020F8B5074615460E4621B9114610
:10251C00BDE8F840FFF798BF1AB9FFF749FF284606
:10252C00F8BD00F027F885420ED929463846FFF74A
:10253C008BFF044650B131462A46FFF713FF314654
:10254C003846FFF735FF01E03046F8BD2046F8BDB0
:10255C0038B5064C0023054608462360FDF70AFFF4
:10256C00431C02D1236803B12B6038BDB805002091
:10257C007047704751F8040C0028BEBF091851F879
:10258C00043CC01804387047537461636B20667246
:10259C00616D653A0A000000205230203D20202554
:1025AC003038580A00000000205231203D202025F0
:1025BC003038580A00000000205232203D202025DF
:1025CC003038580A00000000205233203D202025CE
:1025DC003038580A0000000020523132203D2025AE
:1025EC003038580A00000000204C52203D20202595
:1025FC003038580A00000000205043203D20202590
:10260C003038580A0000000020505352203D20253D
:10261C003038580A000000004653522F4641523AB7
:10262C000A0000002043465352203D20202530381C
:10263C00580A00002048465352203D2020253038AF
:10264C00580A00002044465352203D2020253038A3
:10265C00580A00002041465352203D202025303896
:10266C00580A0000204D4D464152203D202530385F
:10267C00580A00002042464152203D202025303887
:10268C00580A00004D6973630A000000204C522F59
:10269C004558435F52455455524E3D2025303858CD
:1026AC000A0000005B486172644661756C745D0AD7
:1026BC00000000005B4275734661756C745D0A0026
:1026CC005B55736167654661756C745D0A0000004B
:1026DC0000000000000000000000000000000000EE
:1026EC00800000000000000000000000100000004E
:1026FC0000000000000000000200000003000000C9
:10270C0000000000001000000000000000000000AD
:10271C00800000000000000000000000000000002D
:10272C000000000000000000020000000400000097
:10273C00004000000000000000000000000000004D
:10274C0080000000400000000000000000000000BD
:10275C00000000000000000002000000000000006B
:10276C00232D302B2000686C4C006566674546476E
:10277C0000303132333435363738394142434445F1
:10278C004600303132333435363738396162636460
:03279C006566006F
:1027A00078563412A0000020000000000000000055
:1027B00000000000010203040607080900A24A0401
:1027C0000600FFFF00E100E0010101010000000040
:1027D00000000000000000000000000000000000F9
:1027E00000000000000000000000000000000000E9
:1027F00000000000000000000000000000000000D9
:1028000000000000000000000000000000000000C8
:1028100000000000000000000000000000000000B8
:102820000000000000000000000000003000002058
:042830003254769810
:040000050800010DE1
:00000001FF
